{
  "contractName": "Biodata",
  "abi": [
    {
      "constant": false,
      "inputs": [
        {
          "internalType": "address",
          "name": "_addr",
          "type": "address"
        }
      ],
      "name": "getAttribute",
      "outputs": [
        {
          "internalType": "address",
          "name": "addr",
          "type": "address"
        },
        {
          "internalType": "uint256",
          "name": "birthdate",
          "type": "uint256"
        },
        {
          "internalType": "bytes32",
          "name": "nationality",
          "type": "bytes32"
        }
      ],
      "payable": false,
      "stateMutability": "nonpayable",
      "type": "function"
    },
    {
      "constant": false,
      "inputs": [
        {
          "internalType": "bytes32",
          "name": "nationality",
          "type": "bytes32"
        },
        {
          "internalType": "uint8",
          "name": "nationality_perm",
          "type": "uint8"
        },
        {
          "internalType": "uint256",
          "name": "birthdate",
          "type": "uint256"
        },
        {
          "internalType": "uint8",
          "name": "birthdate_perm",
          "type": "uint8"
        }
      ],
      "name": "setAttribute",
      "outputs": [],
      "payable": false,
      "stateMutability": "nonpayable",
      "type": "function"
    }
  ],
  "bytecode": "0x608060405234801561001057600080fd5b50610441806100206000396000f3fe608060405234801561001057600080fd5b50600436106100365760003560e01c80632e08b6c71461003b578063b4072c12146100cd575b600080fd5b61007d6004803603602081101561005157600080fd5b81019080803573ffffffffffffffffffffffffffffffffffffffff16906020019092919050505061011f565b604051808473ffffffffffffffffffffffffffffffffffffffff1673ffffffffffffffffffffffffffffffffffffffff168152602001838152602001828152602001935050505060405180910390f35b61011d600480360360808110156100e357600080fd5b8101908080359060200190929190803560ff16906020019092919080359060200190929190803560ff169060200190929190505050610267565b005b6000806000806000808673ffffffffffffffffffffffffffffffffffffffff1673ffffffffffffffffffffffffffffffffffffffff16815260200190815260200160002090506000925060008160010160008154811061017b57fe5b906000526020600020015411806101bd57508473ffffffffffffffffffffffffffffffffffffffff163373ffffffffffffffffffffffffffffffffffffffff16145b156101e057806001016001815481106101d257fe5b906000526020600020015492505b6000801b91506000801b816000016000815481106101fa57fe5b9060005260206000200154118061023c57508473ffffffffffffffffffffffffffffffffffffffff163373ffffffffffffffffffffffffffffffffffffffff16145b1561025f578060000160018154811061025157fe5b906000526020600020015491505b509193909250565b60008060003373ffffffffffffffffffffffffffffffffffffffff1673ffffffffffffffffffffffffffffffffffffffff168152602001908152602001600020905060405180604001604052808560f81b7effffffffffffffffffffffffffffffffffffffffffffffffffffffffffffff1916815260200186815250816000019060026102f5929190610328565b5060405180604001604052808360ff1681526020018481525081600101906002610320929190610375565b505050505050565b828054828255906000526020600020908101928215610364579160200282015b82811115610363578251825591602001919060010190610348565b5b50905061037191906103c2565b5090565b8280548282559060005260206000209081019282156103b1579160200282015b828111156103b0578251825591602001919060010190610395565b5b5090506103be91906103e7565b5090565b6103e491905b808211156103e05760008160009055506001016103c8565b5090565b90565b61040991905b808211156104055760008160009055506001016103ed565b5090565b9056fea265627a7a72315820275fa9ad45ef62fb7627e5c78a3bfc9f5e1ccf2292d744d4187f70acc33181b464736f6c634300050c0032",
  "source": "pragma solidity ^0.5.0;\n\n/**\n * The biodata contract does this and that...\n */\ncontract Biodata {\n  struct Attribute {\n    bytes32[] nationality;\n    uint256[] birthdate;\n  }\n\n  mapping(address => Attribute) private attributes;\n\n  Attribute[] private attribute;\n\n  function getAttribute(address _addr) public returns (address addr, uint256 birthdate, bytes32 nationality){\n      Attribute storage sender =  attributes[_addr];\n      birthdate = 0;\n      if(sender.birthdate[0] > 0 || msg.sender == _addr)\n        birthdate = sender.birthdate[1];\n    \n      nationality = 0;\n      if(sender.nationality[0] > 0 || msg.sender == _addr)\n        nationality = sender.nationality[1];\n  }\n\n  function setAttribute (bytes32 nationality, uint8 nationality_perm, uint256 birthdate, uint8 birthdate_perm) public\n  {\n    Attribute storage sender = attributes[msg.sender];\n    sender.nationality = [bytes1(nationality_perm), nationality];\n    sender.birthdate = [birthdate_perm, birthdate];\n  }\n  \n}\n",
  "sourcePath": "/Users/faza/dev/blockchain/beta1/truffle/contracts/Biodata.sol",
  "compiler": {
    "name": "solc",
    "version": "0.5.12+commit.7709ece9.Emscripten.clang"
  },
  "schemaVersion": "3.0.20",
  "updatedAt": "2020-01-22T07:14:42.693Z",
  "networkType": "ethereum",
  "devdoc": {
    "methods": {}
  },
  "userdoc": {
    "methods": {},
    "notice": "The biodata contract does this and that..."
  }
}