{
  "contractName": "Biodata",
  "abi": [
    {
      "constant": false,
      "inputs": [
        {
          "internalType": "address",
          "name": "_addr",
          "type": "address"
        }
      ],
      "name": "getAttribute",
      "outputs": [
        {
          "internalType": "bytes32[]",
          "name": "",
          "type": "bytes32[]"
        },
        {
          "internalType": "bool[]",
          "name": "",
          "type": "bool[]"
        }
      ],
      "payable": false,
      "stateMutability": "nonpayable",
      "type": "function"
    },
    {
      "constant": false,
      "inputs": [
        {
          "internalType": "bytes32",
          "name": "nationality",
          "type": "bytes32"
        },
        {
          "internalType": "bool",
          "name": "nationality_perm",
          "type": "bool"
        },
        {
          "internalType": "bytes32",
          "name": "birthdate",
          "type": "bytes32"
        },
        {
          "internalType": "bool",
          "name": "birthdate_perm",
          "type": "bool"
        },
        {
          "internalType": "bytes32",
          "name": "city",
          "type": "bytes32"
        },
        {
          "internalType": "bool",
          "name": "city_perm",
          "type": "bool"
        },
        {
          "internalType": "bytes32",
          "name": "imei",
          "type": "bytes32"
        },
        {
          "internalType": "bool",
          "name": "imei_perm",
          "type": "bool"
        },
        {
          "internalType": "bytes32",
          "name": "gender",
          "type": "bytes32"
        },
        {
          "internalType": "bool",
          "name": "gender_perm",
          "type": "bool"
        }
      ],
      "name": "setAttribute",
      "outputs": [],
      "payable": false,
      "stateMutability": "nonpayable",
      "type": "function"
    }
  ],
  "bytecode": "0x608060405234801561001057600080fd5b50610566806100206000396000f3fe608060405234801561001057600080fd5b50600436106100365760003560e01c80632e08b6c71461003b578063655ac7fa1461011c575b600080fd5b61007d6004803603602081101561005157600080fd5b81019080803573ffffffffffffffffffffffffffffffffffffffff1690602001909291905050506101af565b604051808060200180602001838103835285818151815260200191508051906020019060200280838360005b838110156100c45780820151818401526020810190506100a9565b50505050905001838103825284818151815260200191508051906020019060200280838360005b838110156101065780820151818401526020810190506100eb565b5050505090500194505050505060405180910390f35b6101ad600480360361014081101561013357600080fd5b810190808035906020019092919080351515906020019092919080359060200190929190803515159060200190929190803590602001909291908035151590602001909291908035906020019092919080351515906020019092919080359060200190929190803515159060200190929190505050610312565b005b60608060008060008573ffffffffffffffffffffffffffffffffffffffff1673ffffffffffffffffffffffffffffffffffffffff16815260200190815260200160002090506000816000018054905090506060816040519080825280602002602001820160405280156102315781602001602082028038833980820191505090505b5090506060826040519080825280602002602001820160405280156102655781602001602082028038833980820191505090505b50905060008090505b838110156103025784600001818154811061028557fe5b906000526020600020015483828151811061029c57fe5b6020026020010181815250508460010181815481106102b757fe5b90600052602060002090602091828204019190069054906101000a900460ff168282815181106102e357fe5b602002602001019015159081151581525050808060010191505061026e565b5081819550955050505050915091565b60008060003373ffffffffffffffffffffffffffffffffffffffff1673ffffffffffffffffffffffffffffffffffffffff16815260200190815260200160002090506040518060a001604052808b1515151581526020018915151515815260200187151515158152602001831515151581526020018515151515815250816001019060056103a19291906103e9565b506040518060a001604052808c81526020018a815260200188815260200184815260200186815250816000019060056103db92919061048f565b505050505050505050505050565b82805482825590600052602060002090601f0160209004810192821561047e5791602002820160005b8382111561044f57835183826101000a81548160ff0219169083151502179055509260200192600101602081600001049283019260010302610412565b801561047c5782816101000a81549060ff021916905560010160208160000104928301926001030261044f565b505b50905061048b91906104dc565b5090565b8280548282559060005260206000209081019282156104cb579160200282015b828111156104ca5782518255916020019190600101906104af565b5b5090506104d8919061050c565b5090565b61050991905b8082111561050557600081816101000a81549060ff0219169055506001016104e2565b5090565b90565b61052e91905b8082111561052a576000816000905550600101610512565b5090565b9056fea265627a7a723158206877c1430bb4c592be54acda39307c3d4f53051d75730f9e75e4bd3b36aa721c64736f6c634300050c0032",
  "source": "pragma solidity ^0.5.0;\n// import \"https://raw.githubusercontent.com/OpenZeppelin/openzeppelin-contracts/master/contracts/ownership/Ownable.sol\";\n/**\n * The biodata contract does this and that...\n   transaction cost   740453 gas \n execution cost   516189 gas \n */\ncontract Biodata {\n// internal extrnal cobain\n  struct Attribute {\n    bytes32[] data;\n    bool[] permission;\n  }\n\n  mapping(address => Attribute) private attributes;\n\n  Attribute[] private attribute;\n\n  //public\n  // transaction cost  42815 gas \n  // execution cost   20135 gas \n  // external\n  // transaction cost  24143 gas \n  // execution cost   1463 gas \n  function getAttribute(address _addr) public returns (bytes32[] memory, bool[] memory){\n      Attribute storage sender =  attributes[_addr];\n      // birthdate = 0;\n      \n      // if(sender.birthdate[0] > 0 || msg.sender == _addr)\n      //   birthdate = sender.birthdate[1];\n\n      // nationality = 0;\n      // if(sender.nationality[0] > 0 || msg.sender == _addr)\n      //   nationality = sender.nationality[1];\n      \n      // gender = 0;\n      // if(sender.gender[0] > 0 || msg.sender == _addr)\n      //   gender = sender.gender[1];\n      \n      // city = 0;\n      // if(sender.city[0] > 0 || msg.sender == _addr)\n      //   city = sender.city[1];\n      \n      // imei = 0;\n      // if(sender.imei[0] > 0 || msg.sender == _addr)\n      //   imei = sender.imei[1];\n      // uint arr_length = sender.permission.length;\n      // bytes32[] memory result = new bytes32[](arr_length);\n      // for(uint i = 0; i < arr_length; i++) {\n      //   if(sender.permission[i] > 1){\n      //     result[i] = sender.data[i];\n      //   }\n      //   else{\n      //     result[i] = \"\";\n      //   }\n      // }\n      uint length = sender.data.length;\n      bytes32[] memory data = new bytes32[](length);\n      bool[] memory permission = new bool[](length);\n\n      for (uint i = 0; i < length; i++) {\n            data[i] = sender.data[i];\n            permission[i] = sender.permission[i];\n        }\n\n      return (data, permission);\n  }\n  // public\n  // transaction cost  245142 gas \n  // execution cost   219518 gas \n  // external\n  // transaction cost  245142 gas \n  // execution cost   219518 gas \n  function setAttribute (\n    bytes32 nationality, bool nationality_perm, \n    bytes32 birthdate, bool birthdate_perm,\n    bytes32 city, bool city_perm,\n    bytes32 imei, bool imei_perm,\n    bytes32 gender, bool gender_perm\n    ) public\n  {\n    Attribute storage sender = attributes[msg.sender];\n    sender.permission = [nationality_perm ,birthdate_perm ,city_perm ,gender_perm ,imei_perm];\n    sender.data = [nationality, birthdate, city, gender, imei];\n    // sender.nationality = [nationality_perm, nationality];\n    // sender.birthdate = [birthdate_perm, birthdate];\n    // sender.city = [city_perm, city];\n    // sender.gender = [gender_perm, gender];\n    // sender.imei = [imei_perm, imei];\n  }\n  \n}\n",
  "sourcePath": "/Users/faza/dev/blockchain/beta1/truffle/contracts/Biodata.sol",
  "compiler": {
    "name": "solc",
    "version": "0.5.12+commit.7709ece9.Emscripten.clang"
  },
  "schemaVersion": "3.0.20",
  "updatedAt": "2020-02-03T09:30:55.650Z",
  "networkType": "ethereum",
  "devdoc": {
    "methods": {}
  },
  "userdoc": {
    "methods": {},
    "notice": "The biodata contract does this and that... transaction cost   740453 gas  execution cost   516189 gas "
  }
}